:1000000009C021C020C0F2C01EC01DC01CC01BC042
:100010001AC019C011241FBECFE9CDBF10E0A0E661
:10002000B0E0E2E6F3E002C005900D92A836B10719
:10003000D9F720E0A8E6B0E001C01D92A237B207D0
:10004000E1F7D0D08CC1DCCF20E297FF0EC0C39A7D
:10005000C49AC498660F771F881F991F2150A9F76B
:10006000C29AC29881E090E00EC1C398F1CFCF93BD
:10007000DF9361E08091660026D161E080916400A9
:1000800022D161E0809162001ED1C0E6D0E061E043
:10009000888119D160E080916C0015D161E0888180
:1000A00031D184EF91E0C7D06CE170E88CEB90E047
:1000B000CBDF65E070E088E590E0C6DF6CE270E0E1
:1000C00085EE90E0C1DF63EB74E080E090E0BCDFA0
:1000D00062E47EE480E090E0B7DF61E177EA80E00F
:1000E00098E0B2DF68E875E085EA90E0ADDF60E0B7
:1000F0008881DF91CF9106C180916C001DD1813044
:10010000D9F580916A0090916B00892B09F069C044
:100110008CEB92E090D06CE170E88CEB90E094DF97
:1001200065E070E088E590E08FDF6CE270E085EEDE
:1001300090E08ADF63EB74E080E090E085DF62E4CA
:100140007EE480E090E080DF61E177EA80E098E0A3
:100150007BDF68E875E085EA90E076DF81E090E09B
:1001600090936B0080936A0010926900109268006F
:1001700060E080916000C6C0809168009091690045
:10018000892B79F56CE170E88CEB90E05DDF65E040
:1001900070E088E590E058DF64E370E882E990E081
:1001A00053DF63EB74E080E090E04EDF62E47EE8D2
:1001B00080E090E049DF61E27EEC80E098E044DF9F
:1001C00068E87EEB89E891E03FDF81E090E0909382
:1001D00069008093680010926B0010926A0061E0E1
:1001E000C8CF089560D043DF87DFFECF1F920F9204
:1001F0000FB60F9211248F939F93AF93BF9380916B
:100200006E0090916F00A0917000B0917100019606
:10021000A11DB11D80936E0090936F00A09370009C
:10022000B0937100BF91AF919F918F910F900FBECE
:100230000F901F901895019708F40895EFE5F9E0E5
:100240003197F1F700C00000F6CF9C0143E03695EE
:1002500027954A95E1F7820F931F9C0136952795C4
:1002600036952795892F8695869598E0F894C22F24
:10027000D82FE92FAC2FBD2F1197F1F70000E150D7
:10028000C9F778940895009769F0883C91050CF0BF
:10029000DCCF03979C01220F331F96FD03C0C901D9
:1002A0000197F1F7089583B7816083BF8FB58360AD
:1002B0008FBD89B7826089BF12BE789417B886B1A6
:1002C000876886B90895863078F421E030E0A90186
:1002D00002C0440F551F8A95E2F7CA0197B3611116
:1002E00004C08095892387BB0895892BFCCF811199
:1002F00004C08FB58F778FBD08958130E9F78FB532
:100300008F7DF9CFCF93DF93863088F4D62FC82F17
:10031000823008F4ECDF81E090E001C0880FCA95DC
:10032000EAF798B3D11106C08095892388BBDF9185
:10033000CF910895892BFACFCF93863070F4C82FD0
:10034000823008F4D4DF86B390E002C0959587959B
:10035000CA95E2F78170CF91089580E0FCCFF894C0
:02036000FFCFCD
:08036200010003000400020089
:00000001FF
